:100000000C9463000C948B000C948B000C948B006C
:100010000C948B000C948B000C948B000C940301BB
:100020000C948B000C948B000C948B000C948B0024
:100030000C948B000C948B000C948B000C948B0014
:100040000C9483050C948B000C948B000C948B0007
:100050000C948B000C948B000C948B000C948B00F4
:100060000C948B000C948B000000000024002700EF
:100070002A0000000000250028002B0000000000DE
:1000800023002600290004040404040404040202DA
:100090000202020203030303030301020408102007
:1000A0004080010204081020010204081020000012
:1000B0000007000201000003040600000000000029
:1000C00000000001F50111241FBECFEFD8E0DEBF14
:1000D000CDBF11E0A0E0B1E0E8EEFEE002C0059087
:1000E0000D92AA34B107D9F711E0AAE4B1E001C03A
:1000F0001D92AD37B107E1F710E0C6ECD0E004C0C7
:100100002297FE010E946E07C23CD107C9F70E94E8
:10011000A6040C9472070C940000DA01F9016083C4
:10012000272F22952F702C93808130E07F70282715
:1001300093E0292782958F7082278F70781709F4B2
:1001400031E0832F089582E0809337018BE591E0C1
:10015000909336018093350110923301089590E019
:1001600080913301833009F491E0892F0895E09163
:100170003501F0913601218130E0908180E0282B1B
:10018000392BC9010895EF92FF920F931F93CF93DC
:10019000DF93FC01EA01790110E080819181880FF1
:1001A000991F082B192B11830083DB018C918F5F22
:1001B0008C938031F1F42081318190E040E0892FEF
:1001C000880F922F9170982B369527953695279505
:1001D0004F5F4830A1F7318320838881E80EF11CFE
:1001E0008AEC9827F701908388818F5F8883DB01F1
:1001F0001C92DF91CF911F910F91FF90EF90089586
:100200001092500108951F920F920FB60F92112471
:100210000F932F933F934F935F936F937F938F939E
:100220009F93AF93BF93CF93DF93EF93FF9380910F
:100230003301833008F098C080915101885F80932A
:100240005101809134010E94FB06EC01909353010F
:1002500080935201E0915401F091550190E0CE1746
:10026000DF0709F091E080913301882369F4992335
:1002700009F476C0C130D10509F072C01092510165
:100280001092560181E05AC0813091F5992309F40A
:1002900067C090915601943118F0E130F10529F4CE
:1002A000809151018152813268F5309729F4809113
:1002B00051018152813630F59F5F90935601EF2BAB
:1002C00091F4943180F080915101823460F082E0A9
:1002D00080933301109258011092570110925901E6
:1002E00010925A013BC09032C8F11092330136C0CF
:1002F0008230B1F59923A1F190915101892F81525A
:10030000813618F0109233012BC0923468F020919E
:1003100035013091360187E591E069E571E04AE504
:1003200051E00E2F0E94C300C130D10551F49091CD
:100330005A0180913701981720F083E080933301B0
:100340000FC0209135013091360187E591E069E5D4
:1003500071E04AE551E00C2F0E94C3001092510158
:10036000D0935501C0935401FF91EF91DF91CF914C
:10037000BF91AF919F918F917F916F915F914F91BD
:100380003F912F910F910F900FBE0F901F901895D6
:100390001F93182F8091340160E00E945C0622E0D8
:1003A0002093B00084E08093B10080E890E002C028
:1003B000959587951A95E2F781508093B300209325
:1003C00070001092B2001F910895862F609334013F
:1003D00060E00E945C0608951F93142F0E94E501BF
:1003E000812F0E94C8011F910895CF92EF920F9321
:1003F0008FE591E066E047E028E009E05AE0E52E6D
:100400003BE0C32E0E946D040F91EF90CF900895B2
:100410000F931F938AE491E00E94AF00882309F4B0
:1004200051C08AE491E00E94B7008C018AE491E017
:100430000E94A3008AE491E0B8014EE551E02DE569
:1004400031E00E948D00882349F0609138016F5F90
:100450006170609338018DE00E94C8068FE591E0DD
:1004600060E041E00E9480038FE591E060E071E090
:100470000E9480058FE591E06AE041E00E948003E0
:100480008FE591E060E071E00E9480058FE591E0EA
:1004900060E041E00E9480038FE591E060915E01A1
:1004A0004AE050E00E946E058FE591E06AE041E08D
:1004B0000E9480038FE591E060915D014AE050E089
:1004C0000E946E051F910F9108950F931F938DE069
:1004D00061E00E945C068DE0609138010E94C806D0
:1004E0000AE411E0C80164E042E00E94EC01C801A6
:1004F0000E94A3000FE511E0C80160E142E020E0A6
:100500000E94B703C80160E040E00E948003C80178
:1005100064E071E00E948005C80160E041E00E9453
:100520008003C80165E171E00E94800560ED77E01D
:1005300080E090E00E94F105C8010E94AF03C8016D
:1005400060E040E00E948003C80163E271E00E9425
:100550008005C8016AE040E00E948003C8016EE2A5
:1005600071E00E9480051F910F9108950F931F93D2
:100570008C01FC01868160E00E94C80681E090E069
:100580000E941706F801868161E00E94C80681E09A
:1005900090E00E941706F801868160E00E94C8067C
:1005A00084E690E00E9417061F910F910895CF9264
:1005B000DF92EF92FF920F931F93CF93DF93D82E8A
:1005C000C92E282F392FC9018C01C0E0D0E0E62EBA
:1005D000FF24F801878161E00E945C06B7010C2EC0
:1005E00002C0759567950A94E2F76170F8018781FA
:1005F0000E94C80621960F5F1F4FC830D10549F7EA
:100600008D2D9C2D0E94B602DF91CF911F910F91ED
:10061000FF90EF90DF90CF900895CF92DF92EF920E
:10062000FF920F931F93CF93DF93D82EC92E282FBD
:10063000392FC9018C01C0E0D0E0E62EFF24F8017B
:10064000878161E00E945C06B7010C2E02C075959F
:1006500067950A94E2F76170F80187810E94C806E5
:1006600021960F5F1F4FC430D10549F78D2D9C2D6A
:100670000E94B602DF91CF911F910F91FF90EF90F2
:10068000DF90CF9008951F93CF93DF93EC01162F47
:100690008C81642F0E94C8068D818F3F19F060E025
:1006A0000E94C8068F8584FF05C0CE01612F0E947D
:1006B000D7020EC0612F70E084E0759567958A952A
:1006C000E1F7CE010E940D03CE01612F0E940D03C0
:1006D000DF91CF911F91089541E00E94430381E093
:1006E00090E0089540E00E9443030895FC01608972
:1006F000862F8460808B6C60CF010E947203089506
:10070000DF93CF93CDB7DEB728970FB6F894DEBF4F
:100710000FBECDBF9C01FE013196A1E4B1E088E09F
:100720000D9001928150E1F7F9018389481710F08B
:10073000482F4150E42FF0E0EE0FFF1FEC0FFD1F9C
:100740008181680F6068C9010E94720328960FB604
:10075000F894DEBF0FBECDBFCF91DF91089561E069
:100760000E94720380ED97E00E9417060895CF93D0
:10077000DF93EC01423018F08F8588608F874B8BB8
:100780001C8A222329F0413019F48F8584608F87D9
:1007900080E593EC0E9417068C8160E00E94C806F9
:1007A0008E8160E00E94C8068D818F3F19F060E065
:1007B0000E94C8066F8564FD1DC0CE0163E00E94E3
:1007C0000D0384E991E10E941706CE0163E00E94C7
:1007D0000D0384E991E10E941706CE0163E00E94B7
:1007E0000D0386E990E00E941706CE0162E00E94A8
:1007F0000D0316C06062CE010E94720384E991E18C
:100800000E9417066F856062CE010E94720386E91E
:1008100090E00E9417066F856062CE010E9472030D
:100820006F856062CE010E94720384E0888BCE01E6
:100830000E947603CE010E94AF0382E0898BCE0135
:1008400066E00E947203DF91CF9108956F927F92CC
:100850008F92AF92CF92EF920F931F93DF93CF932C
:10086000CDB7DEB73C01162F842FF30144832583D7
:100870000683E782C086A18682869D8593879E85B2
:1008800094879F8595879889968761E00E945C068A
:10089000F30185818F3F19F061E00E945C06F3014E
:1008A000868161E00E945C06112319F0F30117862E
:1008B00003C080E1F3018787C30160E141E020E0EC
:1008C0000E94B703CF91DF911F910F91EF90CF90CE
:1008D000AF908F907F906F9008958F92AF92CF924C
:1008E000EF920F931F93CF93DF93DC01362F542F9A
:1008F000722F102FAE2C8C2C13961C921E921297D6
:100900008DE391E011969C938E9300D000D0EDB7CB
:10091000FEB73196CDB7DEB71982118212821382EB
:10092000CD0161E0432F2FEF052FE72EC12E0E944E
:1009300026040F900F900F900F90DF91CF911F9191
:100940000F91EF90CF90AF908F900895CF93DF935A
:100950000E9421060E946502C0E0D0E00E940802C9
:100960002097E1F30E940000F9CFCF92DF92EF923F
:10097000FF920F931F93CF93DF937C016B018A014A
:10098000C0E0D0E00FC0D6016D916D01D701ED91AF
:10099000FC910190F081E02DC7010995C80FD91F86
:1009A000015010400115110571F7CE01DF91CF9173
:1009B0001F910F91FF90EF90DF90CF900895CF930C
:1009C000DF93EC016115710519F420E030E00FC0F0
:1009D000DB010D900020E9F71197A61BB70BE8810A
:1009E000F9810280F381E02DAD0109959C01C901D7
:1009F000DF91CF9108954F925F927F928F929F9255
:100A0000AF92BF92CF92DF92EF92FF920F931F931C
:100A1000DF93CF93CDB7DEB7A1970FB6F894DEBFC3
:100A20000FBECDBF2C01742ECB01223008F42AE07A
:100A300019A231E2C32ED12CCC0EDD1E822E9924B8
:100A4000AA24BB24672D752FA50194010E944A0793
:100A500079018A01C801B701A50194010E942B0701
:100A6000472D461B0894C108D1084A3014F4405D54
:100A700001C0495CF6014083E114F1040105110550
:100A800021F07E2C5F2DC801DDCFC201B6010E948E
:100A9000DF04A1960FB6F894DEBF0FBECDBFCF9195
:100AA000DF911F910F91FF90EF90DF90CF90BF905B
:100AB000AF909F908F907F905F904F900895DC0152
:100AC0002115310541F4ED91FC910190F081E02D6B
:100AD000642F099508950E94FB040895EF92FF92F8
:100AE0000F931F939A01E62EFF2400E010E0B80157
:100AF000A7010E945F051F910F91FF90EF9008954D
:100B00000E94DF0408951F920F920FB60F921124D6
:100B10002F933F938F939F93AF93BF9380917801CF
:100B200090917901A0917A01B0917B0130917C0183
:100B30000196A11DB11D232F2D5F2D3720F02D57BC
:100B40000196A11DB11D20937C01809378019093A3
:100B50007901A0937A01B0937B0180917401909107
:100B60007501A0917601B09177010196A11DB11D8B
:100B70008093740190937501A0937601B0937701EF
:100B8000BF91AF919F918F913F912F910F900FBE89
:100B90000F901F9018959FB7F89420917401309191
:100BA0007501409176015091770186B5A89B06C0EA
:100BB0008F3F21F02F5F3F4F4F4F5F4F9FBF542F0D
:100BC000432F322F2227280F311D411D511D82E056
:100BD000220F331F441F551F8A95D1F7B901CA014F
:100BE0000895EF92FF920F931F93CF93DF937B01B2
:100BF0008C010E94CB05EB010EC00E94CB056C1B43
:100C00007D0B685E7340C8F30894E108F1080109A0
:100C10001109C851DC4FE114F1040105110569F710
:100C2000DF91CF911F910F91FF90EF900895019761
:100C300039F0880F991F880F991F02970197F1F7D4
:100C40000895789484B5826084BD84B5816084BD44
:100C500085B5826085BD85B5816085BDEEE6F0E035
:100C6000808181608083E1E8F0E010828081826091
:100C70008083808181608083E0E8F0E08081816012
:100C80008083E1EBF0E0808184608083E0EBF0E042
:100C9000808181608083EAE7F0E0808184608083E6
:100CA0008081826080838081816080838081806890
:100CB00080831092C1000895CF93DF93482F50E0B6
:100CC000CA0186569F4FFC0134914A575F4FFA0183
:100CD0008491882369F190E0880F991FFC01E859FD
:100CE000FF4FA591B491FC01EE58FF4FC591D491EF
:100CF000662351F42FB7F8948C91932F9095892304
:100D00008C93888189230BC0623061F42FB7F894EB
:100D10008C91932F909589238C938881832B888342
:100D20002FBF06C09FB7F8948C91832B8C939FBFE5
:100D3000DF91CF910895833071F0843028F48130B1
:100D4000A1F0823021F514C08630B1F08730D1F0A7
:100D50008430E9F404C0809180008F7703C08091D3
:100D600080008F7D80938000089584B58F7702C0C6
:100D700084B58F7D84BD08958091B0008F77809376
:100D8000B00008958091B0008F7D8093B0000895E9
:100D9000FF920F931F93F62E482F50E0CA01825501
:100DA0009F4FFC012491CA0186569F4FFC0114916C
:100DB0004A575F4FFA0104910023C9F0222319F02A
:100DC000822F0E949B06E02FF0E0EE0FFF1FEE58EF
:100DD000FF4FA591B4919FB7F894FF2021F48C9117
:100DE0001095812302C08C91812B8C939FBF1F9102
:100DF0000F91FF9008950F931F93482F50E0CA0161
:100E000082559F4FFC012491CA0186569F4FFC01D9
:100E100004914A575F4FFA011491112319F420E00D
:100E200030E015C0222319F0822F0E949B06812FEB
:100E300090E0880F991F84589F4FFC01A591B491B1
:100E40008C9120E030E0802311F021E030E0C901F6
:100E50001F910F910895629FD001739FF001829FAF
:100E6000E00DF11D649FE00DF11D929FF00D839F39
:100E7000F00D749FF00D659FF00D9927729FB00DD6
:100E8000E11DF91F639FB00DE11DF91FBD01CF01E9
:100E900011240895A1E21A2EAA1BBB1BFD010DC04F
:100EA000AA1FBB1FEE1FFF1FA217B307E407F5071A
:100EB00020F0A21BB30BE40BF50B661F771F881FF6
:100EC000991F1A9469F760957095809590959B018C
:100ED000AC01BD01CF010895EE0FFF1F0590F49105
:080EE000E02D0994F894FFCF06
:100EE8002020200054454C454D4554525920535913
:100EF8005354454D004259204D44344E3120323030
:100F080031340053454E4445522D49442000444154
:100F180054410004FF5B010201000000006C03B5AE
:0A0F28000400004000140054000013
:00000001FF
