:100000000C9462000C948A000C948A000C948A0070
:100010000C948A000C948A000C948A000C941E01A3
:100020000C948A000C948A000C948A000C948A0028
:100030000C948A000C948A000C948A000C948A0018
:100040000C94B0020C948A000C948A000C948A00E0
:100050000C948A000C948A000C948A000C948A00F8
:100060000C948A000C948A000000000024002700F1
:100070002A0000000000250028002B0000000000DE
:1000800023002600290004040404040404040202DA
:100090000202020203030303030301020408102007
:1000A0004080010204081020010204081020000012
:1000B0000007000201000003040600000000000029
:1000C00000001B0111241FBECFEFD8E0DEBFCDBF63
:1000D00011E0A0E0B1E0E4E0F9E002C005900D928B
:1000E000A830B107D9F711E0A8E0B1E001C01D9236
:1000F000A532B107E1F710E0C4ECD0E004C02297CC
:10010000FE010E947C04C23CD107C9F70E94A102F3
:100110000C9480040C9400000F931F938EE00E94B7
:1001200089038093080168EE73E080E090E00E940C
:100130001E0309E011E0C80161E0409108010E943E
:10014000C600BC01C8010E948F02809108018F5F28
:1001500080930801609100016F5F617060930001FE
:100160008DE00E9417041F910F9108958DE061E0CA
:100170000E94AB038DE0609100010E94170489E0AA
:1001800091E065E042E00E94EA010895842F90E04A
:10019000362F3295307F20E0282B392B462753E02D
:1001A000452754E0959587955A95E1F74827942F70
:1001B0009F7080E0282B392BC9010895EF92FF92A0
:1001C0000F931F93CF93DF93FC01EA01790110E0B5
:1001D00080819181880F991F082B192B118300832F
:1001E000DB018C918F5F8C938031F1F42081318120
:1001F00090E040E0892F880F922F9170982B3695D0
:100200002795369527954F5F4830A1F73183208396
:100210008881E80EF11C8AEC9827F7019083888189
:100220008F5F8883DB011C92DF91CF911F910F912B
:10023000FF90EF90089510920F0108951F920F9272
:100240000FB60F9211240F932F933F934F935F9309
:100250006F937F938F939F93AF93BF93CF93DF93CE
:10026000EF93FF9380910101833008F098C0809153
:100270001001885F80931001809102010E944A045E
:10028000EC019093120180931101E0911301F09120
:10029000140190E0CE17DF0709F091E08091010191
:1002A000882369F4992309F476C0C130D10509F097
:1002B00072C0109210011092150181E05AC0813075
:1002C00091F5992309F467C090911501943118F0C4
:1002D000E130F10529F4809110018152813268F5F5
:1002E000309729F4809110018152813630F59F5F5B
:1002F00090931501EF2B91F4943180F080911001CF
:10030000823460F082E08093010110921701109214
:10031000160110921801109219013BC09032C8F1D9
:100320001092010136C08230B1F59923A1F190916C
:100330001001892F8152813618F0109201012BC0D3
:10034000923468F0209103013091040186E191E03C
:1003500068E171E049E151E00E2F0E94DE00C130FA
:10036000D10551F49091190180910501981720F061
:1003700083E0809301010FC02091030130910401BB
:1003800086E191E068E171E049E151E00C2F0E94C3
:10039000DE0010921001D0931401C0931301FF915D
:1003A000EF91DF91CF91BF91AF919F918F917F910D
:1003B0006F915F914F913F912F910F910F900FBED1
:1003C0000F901F901895FC016583862F61E00E94B5
:1003D000AB030895FF920F931F938C01F42E0E949C
:1003E000E301F801F08280E09CE002C095958795DA
:1003F000FA94E2F70497928381830296948383832D
:100400001F910F91FF9008950F931F938C01FC0192
:10041000818192810E944403F801858160E00E94FD
:100420001704F801838194810E944403F8018581B7
:1004300061E00E9417041F910F9108950F931F937D
:100440008C01FC01818192810E944403F801858125
:1004500061E00E941704F801838194810E944403A3
:10046000F801858160E00E9417041F910F910895A3
:100470008F929F92AF92BF92CF92DF92EF92FF92B4
:100480000F931F93CF93DF937C01962E142F052F8C
:10049000C0E0D0E0C7010E941E022196CE30D105F7
:1004A000C9F7C7010E940402812F902F9C01890186
:1004B000CC249AEC892E1EC0F80180818825C1E0E9
:1004C000D0E0DD24A82EBB24CE018A219B21892BDC
:1004D00021F4C7010E941E0203C0C7010E9404024A
:1004E000D394F8E0DF1619F0CC0FDD1FEDCFC394E5
:1004F0000F5F1F4FC91400F3C7010E941E02C701FE
:100500000E941E02DF91CF911F910F91FF90EF90FB
:10051000DF90CF90BF90AF909F908F900895DF9322
:10052000CF9300D0CDB7DEB779836A8362E0AE01A6
:100530004F5F5F4F0E9438020F900F90CF91DF9175
:100540000895CF93DF930E944E030E94B600C0E04F
:10055000D0E00E948C002097E1F30E940000F9CFC8
:100560001F920F920FB60F9211242F933F938F93E8
:100570009F93AF93BF938091200190912101A0910F
:100580002201B0912301309124010196A11DB11DDA
:10059000232F2D5F2D3720F02D570196A11DB11D62
:1005A000209324018093200190932101A0932201A4
:1005B000B093230180911C0190911D01A0911E0117
:1005C000B0911F010196A11DB11D80931C01909354
:1005D0001D01A0931E01B0931F01BF91AF919F9188
:1005E0008F913F912F910F900FBE0F901F901895F4
:1005F0009FB7F89420911C0130911D0140911E017C
:1006000050911F0186B5A89B06C08F3F21F02F5F38
:100610003F4F4F4F5F4F9FBF542F432F322F222703
:10062000280F311D411D511D82E0220F331F441F31
:10063000551F8A95D1F7B901CA010895EF92FF922B
:100640000F931F93CF93DF937B018C010E94F802DD
:10065000EB010EC00E94F8026C1B7D0B685E7340BC
:10066000C8F30894E108F10801091109C851DC4FE9
:10067000E114F1040105110569F7DF91CF911F9194
:100680000F91FF90EF900895019739F0880F991F0F
:10069000880F991F02970197F1F70895789484B510
:1006A000826084BD84B5816084BD85B5826085BD6E
:1006B00085B5816085BDEEE6F0E080818160808354
:1006C000E1E8F0E010828081826080838081816037
:1006D0008083E0E8F0E0808181608083E1EBF0E0FE
:1006E000808184608083E0EBF0E0808181608083A2
:1006F000EAE7F0E08081846080838081826080838B
:100700008081816080838081806880831092C100B5
:100710000895982F8E3008F09E50977080910601B2
:100720008295880F880F807C892B80937C00809134
:100730007A00806480937A0080917A0086FDFCCFF5
:100740002091780040917900942F80E030E0282BB0
:10075000392BC9010895CF93DF93482F50E0CA0188
:1007600086569F4FFC0134914A575F4FFA0184919E
:10077000882369F190E0880F991FFC01E859FF4F29
:10078000A591B491FC01EE58FF4FC591D491662319
:1007900051F42FB7F8948C91932F909589238C93D3
:1007A000888189230BC0623061F42FB7F8948C9153
:1007B000932F909589238C938881832B88832FBFD7
:1007C00006C09FB7F8948C91832B8C939FBFDF91C9
:1007D000CF910895833071F0843028F48130A1F0F6
:1007E000823021F514C08630B1F08730D1F08430EA
:1007F000E9F404C0809180008F7703C0809180006D
:100800008F7D80938000089584B58F7702C084B572
:100810008F7D84BD08958091B0008F778093B00064
:1008200008958091B0008F7D8093B0000895FF926D
:100830000F931F93F62E482F50E0CA0182559F4F09
:10084000FC012491CA0186569F4FFC0114914A571E
:100850005F4FFA0104910023C9F0222319F0822F7F
:100860000E94EA03E02FF0E0EE0FFF1FEE58FF4F6B
:10087000A591B4919FB7F894FF2021F48C91109525
:10088000812302C08C91812B8C939FBF1F910F916C
:10089000FF9008950F931F93482F50E0CA0182558F
:1008A0009F4FFC012491CA0186569F4FFC01049181
:1008B0004A575F4FFA011491112319F420E030E0F8
:1008C00015C0222319F0822F0E94EA03812F90E0A5
:1008D000880F991F84589F4FFC01A591B4918C916A
:1008E00020E030E0802311F021E030E0C9011F91C9
:1008F0000F910895EE0FFF1F0590F491E02D0994DC
:04090000F894FFCF99
:080904000104FF1A01020100C9
:00000001FF
